{
  "contractName": "HelloWorld",
  "abi": [
    {
      "inputs": [],
      "stateMutability": "nonpayable",
      "type": "constructor"
    },
    {
      "anonymous": false,
      "inputs": [
        {
          "indexed": false,
          "internalType": "address",
          "name": "submitter",
          "type": "address"
        },
        {
          "indexed": false,
          "internalType": "string",
          "name": "message",
          "type": "string"
        }
      ],
      "name": "Log",
      "type": "event"
    },
    {
      "inputs": [
        {
          "internalType": "address",
          "name": "",
          "type": "address"
        },
        {
          "internalType": "uint256",
          "name": "",
          "type": "uint256"
        }
      ],
      "name": "accountMsgMap",
      "outputs": [
        {
          "internalType": "string",
          "name": "",
          "type": "string"
        }
      ],
      "stateMutability": "view",
      "type": "function"
    },
    {
      "inputs": [
        {
          "internalType": "string",
          "name": "_msg",
          "type": "string"
        }
      ],
      "name": "updateMessage",
      "outputs": [],
      "stateMutability": "nonpayable",
      "type": "function"
    },
    {
      "inputs": [
        {
          "internalType": "address",
          "name": "_user",
          "type": "address"
        },
        {
          "internalType": "uint256",
          "name": "_index",
          "type": "uint256"
        }
      ],
      "name": "getMessage",
      "outputs": [
        {
          "internalType": "string",
          "name": "",
          "type": "string"
        }
      ],
      "stateMutability": "view",
      "type": "function"
    },
    {
      "inputs": [],
      "name": "latestMessage",
      "outputs": [
        {
          "internalType": "address",
          "name": "",
          "type": "address"
        },
        {
          "internalType": "string",
          "name": "",
          "type": "string"
        }
      ],
      "stateMutability": "nonpayable",
      "type": "function"
    }
  ],
  "bytecode": "0x608060405234801561001057600080fd5b50336000800160006101000a81548173ffffffffffffffffffffffffffffffffffffffff021916908373ffffffffffffffffffffffffffffffffffffffff1602179055506040518060400160405280600b81526020017f48656c6c6f20576f726c64000000000000000000000000000000000000000000815250600060010190805190602001906100a29291906100a8565b506101ab565b8280546100b49061017a565b90600052602060002090601f0160209004810192826100d6576000855561011d565b82601f106100ef57805160ff191683800117855561011d565b8280016001018555821561011d579182015b8281111561011c578251825591602001919060010190610101565b5b50905061012a919061012e565b5090565b5b8082111561014757600081600090555060010161012f565b5090565b7f4e487b7100000000000000000000000000000000000000000000000000000000600052602260045260246000fd5b6000600282049050600182168061019257607f821691505b6020821081036101a5576101a461014b565b5b50919050565b610b32806101ba6000396000f3fe608060405234801561001057600080fd5b506004361061004c5760003560e01c80631923be2414610051578063282c16371461006d57806334a077981461009d578063570c537e146100bc575b600080fd5b61006b60048036038101906100669190610710565b6100ec565b005b610087600480360381019061008291906107ed565b6101c5565b60405161009491906108b5565b60405180910390f35b6100a561027e565b6040516100b39291906108e6565b60405180910390f35b6100d660048036038101906100d191906107ed565b6103a1565b6040516100e391906108b5565b60405180910390f35b600260003373ffffffffffffffffffffffffffffffffffffffff1673ffffffffffffffffffffffffffffffffffffffff16815260200190815260200160002081908060018154018082558091505060019003906000526020600020016000909190919091509080519060200190610164929190610513565b50336000800160006101000a81548173ffffffffffffffffffffffffffffffffffffffff021916908373ffffffffffffffffffffffffffffffffffffffff16021790555080600060010190805190602001906101c1929190610513565b5050565b600260205281600052604060002081815481106101e157600080fd5b906000526020600020016000915091505080546101fd90610945565b80601f016020809104026020016040519081016040528092919081815260200182805461022990610945565b80156102765780601f1061024b57610100808354040283529160200191610276565b820191906000526020600020905b81548152906001019060200180831161025957829003601f168201915b505050505081565b600060607f0738f4da267a110d810e6e89fc59e46be6de0c37b1d5cd559b267dc3688e74e06000800160009054906101000a900473ffffffffffffffffffffffffffffffffffffffff1660006001016040516102db929190610a0b565b60405180910390a16000800160009054906101000a900473ffffffffffffffffffffffffffffffffffffffff16600060010180805461031990610945565b80601f016020809104026020016040519081016040528092919081815260200182805461034590610945565b80156103925780601f1061036757610100808354040283529160200191610392565b820191906000526020600020905b81548152906001019060200180831161037557829003601f168201915b50505050509050915091509091565b606081600260008573ffffffffffffffffffffffffffffffffffffffff1673ffffffffffffffffffffffffffffffffffffffff1681526020019081526020016000208054905011610427576040517f08c379a000000000000000000000000000000000000000000000000000000000815260040161041e90610aad565b60405180910390fd5b600260008473ffffffffffffffffffffffffffffffffffffffff1673ffffffffffffffffffffffffffffffffffffffff168152602001908152602001600020828154811061047857610477610acd565b5b90600052602060002001805461048d90610945565b80601f01602080910402602001604051908101604052809291908181526020018280546104b990610945565b80156105065780601f106104db57610100808354040283529160200191610506565b820191906000526020600020905b8154815290600101906020018083116104e957829003601f168201915b5050505050905092915050565b82805461051f90610945565b90600052602060002090601f0160209004810192826105415760008555610588565b82601f1061055a57805160ff1916838001178555610588565b82800160010185558215610588579182015b8281111561058757825182559160200191906001019061056c565b5b5090506105959190610599565b5090565b5b808211156105b257600081600090555060010161059a565b5090565b6000604051905090565b600080fd5b600080fd5b600080fd5b600080fd5b6000601f19601f8301169050919050565b7f4e487b7100000000000000000000000000000000000000000000000000000000600052604160045260246000fd5b61061d826105d4565b810181811067ffffffffffffffff8211171561063c5761063b6105e5565b5b80604052505050565b600061064f6105b6565b905061065b8282610614565b919050565b600067ffffffffffffffff82111561067b5761067a6105e5565b5b610684826105d4565b9050602081019050919050565b82818337600083830152505050565b60006106b36106ae84610660565b610645565b9050828152602081018484840111156106cf576106ce6105cf565b5b6106da848285610691565b509392505050565b600082601f8301126106f7576106f66105ca565b5b81356107078482602086016106a0565b91505092915050565b600060208284031215610726576107256105c0565b5b600082013567ffffffffffffffff811115610744576107436105c5565b5b610750848285016106e2565b91505092915050565b600073ffffffffffffffffffffffffffffffffffffffff82169050919050565b600061078482610759565b9050919050565b61079481610779565b811461079f57600080fd5b50565b6000813590506107b18161078b565b92915050565b6000819050919050565b6107ca816107b7565b81146107d557600080fd5b50565b6000813590506107e7816107c1565b92915050565b60008060408385031215610804576108036105c0565b5b6000610812858286016107a2565b9250506020610823858286016107d8565b9150509250929050565b600081519050919050565b600082825260208201905092915050565b60005b8381101561086757808201518184015260208101905061084c565b83811115610876576000848401525b50505050565b60006108878261082d565b6108918185610838565b93506108a1818560208601610849565b6108aa816105d4565b840191505092915050565b600060208201905081810360008301526108cf818461087c565b905092915050565b6108e081610779565b82525050565b60006040820190506108fb60008301856108d7565b818103602083015261090d818461087c565b90509392505050565b7f4e487b7100000000000000000000000000000000000000000000000000000000600052602260045260246000fd5b6000600282049050600182168061095d57607f821691505b6020821081036109705761096f610916565b5b50919050565b60008190508160005260206000209050919050565b6000815461099881610945565b6109a28186610838565b945060018216600081146109bd57600181146109cf57610a02565b60ff1983168652602086019350610a02565b6109d885610976565b60005b838110156109fa578154818901526001820191506020810190506109db565b808801955050505b50505092915050565b6000604082019050610a2060008301856108d7565b8181036020830152610a32818461098b565b90509392505050565b7f496e64657820666f72207468652070726f76696465642061646472657373206460008201527f6f6573206e6f7420657869737400000000000000000000000000000000000000602082015250565b6000610a97602d83610838565b9150610aa282610a3b565b604082019050919050565b60006020820190508181036000830152610ac681610a8a565b9050919050565b7f4e487b7100000000000000000000000000000000000000000000000000000000600052603260045260246000fdfea2646970667358221220186797e1ccf371be06e35c844f9c7f42f9220725c3826178518eda6b4c1d4e2664736f6c634300080d0033",
  "immutableReferences": {},
  "source": "// SPDX-License-Identifier: GPL-3.0\r\npragma solidity >=0.7.0 <0.9.0;\r\n\r\ncontract HelloWorld {\r\n\r\n    struct LastMessage {\r\n        address submitter;\r\n        string message;\r\n    }\r\n\r\n    LastMessage lastMessage;\r\n\r\n    // Mapping strings from address\r\n    mapping(address => string[]) public accountMsgMap;\r\n\r\n    constructor() {\r\n        lastMessage.submitter = msg.sender;\r\n        lastMessage.message = \"Hello World\";\r\n    }\r\n\r\n    event Log(address submitter, string message);\r\n\r\n    // Push the message to the array of the sender\r\n    // Update the last message struct\r\n    function updateMessage(string memory _msg) public {\r\n        accountMsgMap[msg.sender].push(_msg);\r\n        lastMessage.submitter = msg.sender;\r\n        lastMessage.message = _msg;\r\n    }\r\n\r\n    //returns the string at index i for a given user\r\n    function getMessage(address _user, uint _index) public view returns (string memory) {\r\n        require(accountMsgMap[_user].length > _index, \"Index for the provided address does not exist\");\r\n        return accountMsgMap[_user][_index];\r\n    }\r\n\r\n    //returns the latest message and the address that submitted it\r\n    function latestMessage() public returns (address, string memory) {\r\n        emit Log(lastMessage.submitter, lastMessage.message);\r\n        return (lastMessage.submitter, lastMessage.message);\r\n    }\r\n\r\n}\r\n",
  "sourcePath": "C:\\Users\\lalan\\Desktop\\cryptocurrency-class-2022\\coding-exercise-1\\hello-world\\contracts\\HelloWorld.sol",
  "compiler": {
    "name": "solc",
    "version": "0.8.13+commit.abaa5c0e.Emscripten.clang"
  },
  "schemaVersion": "3.4.7",
  "updatedAt": "2022-04-20T15:40:04.680Z",
  "devdoc": {
    "kind": "dev",
    "methods": {},
    "version": 1
  },
  "userdoc": {
    "kind": "user",
    "methods": {},
    "version": 1
  }
}